{
  "contractName": "NftEjm",
  "abi": [
    {
      "inputs": [
        {
          "internalType": "string",
          "name": "_name",
          "type": "string"
        },
        {
          "internalType": "string",
          "name": "_symbol",
          "type": "string"
        }
      ],
      "stateMutability": "nonpayable",
      "type": "constructor"
    },
    {
      "anonymous": false,
      "inputs": [
        {
          "indexed": true,
          "internalType": "address",
          "name": "owner",
          "type": "address"
        },
        {
          "indexed": true,
          "internalType": "address",
          "name": "approved",
          "type": "address"
        },
        {
          "indexed": true,
          "internalType": "uint256",
          "name": "tokenId",
          "type": "uint256"
        }
      ],
      "name": "Approval",
      "type": "event"
    },
    {
      "anonymous": false,
      "inputs": [
        {
          "indexed": true,
          "internalType": "address",
          "name": "owner",
          "type": "address"
        },
        {
          "indexed": true,
          "internalType": "address",
          "name": "operator",
          "type": "address"
        },
        {
          "indexed": false,
          "internalType": "bool",
          "name": "approved",
          "type": "bool"
        }
      ],
      "name": "ApprovalForAll",
      "type": "event"
    },
    {
      "anonymous": false,
      "inputs": [
        {
          "indexed": true,
          "internalType": "address",
          "name": "previousOwner",
          "type": "address"
        },
        {
          "indexed": true,
          "internalType": "address",
          "name": "newOwner",
          "type": "address"
        }
      ],
      "name": "OwnershipTransferred",
      "type": "event"
    },
    {
      "anonymous": false,
      "inputs": [
        {
          "indexed": true,
          "internalType": "address",
          "name": "from",
          "type": "address"
        },
        {
          "indexed": true,
          "internalType": "address",
          "name": "to",
          "type": "address"
        },
        {
          "indexed": true,
          "internalType": "uint256",
          "name": "tokenId",
          "type": "uint256"
        }
      ],
      "name": "Transfer",
      "type": "event"
    },
    {
      "inputs": [
        {
          "internalType": "address",
          "name": "to",
          "type": "address"
        },
        {
          "internalType": "uint256",
          "name": "tokenId",
          "type": "uint256"
        }
      ],
      "name": "approve",
      "outputs": [],
      "stateMutability": "nonpayable",
      "type": "function"
    },
    {
      "inputs": [
        {
          "internalType": "address",
          "name": "owner",
          "type": "address"
        }
      ],
      "name": "balanceOf",
      "outputs": [
        {
          "internalType": "uint256",
          "name": "",
          "type": "uint256"
        }
      ],
      "stateMutability": "view",
      "type": "function",
      "constant": true
    },
    {
      "inputs": [],
      "name": "baseURI",
      "outputs": [
        {
          "internalType": "string",
          "name": "",
          "type": "string"
        }
      ],
      "stateMutability": "view",
      "type": "function",
      "constant": true
    },
    {
      "inputs": [
        {
          "internalType": "uint256",
          "name": "tokenId",
          "type": "uint256"
        }
      ],
      "name": "getApproved",
      "outputs": [
        {
          "internalType": "address",
          "name": "",
          "type": "address"
        }
      ],
      "stateMutability": "view",
      "type": "function",
      "constant": true
    },
    {
      "inputs": [
        {
          "internalType": "address",
          "name": "owner",
          "type": "address"
        },
        {
          "internalType": "address",
          "name": "operator",
          "type": "address"
        }
      ],
      "name": "isApprovedForAll",
      "outputs": [
        {
          "internalType": "bool",
          "name": "",
          "type": "bool"
        }
      ],
      "stateMutability": "view",
      "type": "function",
      "constant": true
    },
    {
      "inputs": [],
      "name": "name",
      "outputs": [
        {
          "internalType": "string",
          "name": "",
          "type": "string"
        }
      ],
      "stateMutability": "view",
      "type": "function",
      "constant": true
    },
    {
      "inputs": [],
      "name": "owner",
      "outputs": [
        {
          "internalType": "address",
          "name": "",
          "type": "address"
        }
      ],
      "stateMutability": "view",
      "type": "function",
      "constant": true
    },
    {
      "inputs": [
        {
          "internalType": "uint256",
          "name": "tokenId",
          "type": "uint256"
        }
      ],
      "name": "ownerOf",
      "outputs": [
        {
          "internalType": "address",
          "name": "",
          "type": "address"
        }
      ],
      "stateMutability": "view",
      "type": "function",
      "constant": true
    },
    {
      "inputs": [],
      "name": "renounceOwnership",
      "outputs": [],
      "stateMutability": "nonpayable",
      "type": "function"
    },
    {
      "inputs": [
        {
          "internalType": "address",
          "name": "from",
          "type": "address"
        },
        {
          "internalType": "address",
          "name": "to",
          "type": "address"
        },
        {
          "internalType": "uint256",
          "name": "tokenId",
          "type": "uint256"
        }
      ],
      "name": "safeTransferFrom",
      "outputs": [],
      "stateMutability": "nonpayable",
      "type": "function"
    },
    {
      "inputs": [
        {
          "internalType": "address",
          "name": "from",
          "type": "address"
        },
        {
          "internalType": "address",
          "name": "to",
          "type": "address"
        },
        {
          "internalType": "uint256",
          "name": "tokenId",
          "type": "uint256"
        },
        {
          "internalType": "bytes",
          "name": "_data",
          "type": "bytes"
        }
      ],
      "name": "safeTransferFrom",
      "outputs": [],
      "stateMutability": "nonpayable",
      "type": "function"
    },
    {
      "inputs": [
        {
          "internalType": "address",
          "name": "operator",
          "type": "address"
        },
        {
          "internalType": "bool",
          "name": "approved",
          "type": "bool"
        }
      ],
      "name": "setApprovalForAll",
      "outputs": [],
      "stateMutability": "nonpayable",
      "type": "function"
    },
    {
      "inputs": [
        {
          "internalType": "bytes4",
          "name": "interfaceId",
          "type": "bytes4"
        }
      ],
      "name": "supportsInterface",
      "outputs": [
        {
          "internalType": "bool",
          "name": "",
          "type": "bool"
        }
      ],
      "stateMutability": "view",
      "type": "function",
      "constant": true
    },
    {
      "inputs": [],
      "name": "symbol",
      "outputs": [
        {
          "internalType": "string",
          "name": "",
          "type": "string"
        }
      ],
      "stateMutability": "view",
      "type": "function",
      "constant": true
    },
    {
      "inputs": [
        {
          "internalType": "uint256",
          "name": "index",
          "type": "uint256"
        }
      ],
      "name": "tokenByIndex",
      "outputs": [
        {
          "internalType": "uint256",
          "name": "",
          "type": "uint256"
        }
      ],
      "stateMutability": "view",
      "type": "function",
      "constant": true
    },
    {
      "inputs": [
        {
          "internalType": "address",
          "name": "owner",
          "type": "address"
        },
        {
          "internalType": "uint256",
          "name": "index",
          "type": "uint256"
        }
      ],
      "name": "tokenOfOwnerByIndex",
      "outputs": [
        {
          "internalType": "uint256",
          "name": "",
          "type": "uint256"
        }
      ],
      "stateMutability": "view",
      "type": "function",
      "constant": true
    },
    {
      "inputs": [],
      "name": "totalSupply",
      "outputs": [
        {
          "internalType": "uint256",
          "name": "",
          "type": "uint256"
        }
      ],
      "stateMutability": "view",
      "type": "function",
      "constant": true
    },
    {
      "inputs": [
        {
          "internalType": "address",
          "name": "from",
          "type": "address"
        },
        {
          "internalType": "address",
          "name": "to",
          "type": "address"
        },
        {
          "internalType": "uint256",
          "name": "tokenId",
          "type": "uint256"
        }
      ],
      "name": "transferFrom",
      "outputs": [],
      "stateMutability": "nonpayable",
      "type": "function"
    },
    {
      "inputs": [
        {
          "internalType": "address",
          "name": "newOwner",
          "type": "address"
        }
      ],
      "name": "transferOwnership",
      "outputs": [],
      "stateMutability": "nonpayable",
      "type": "function"
    },
    {
      "inputs": [
        {
          "internalType": "address",
          "name": "_to",
          "type": "address"
        },
        {
          "internalType": "string[]",
          "name": "_hashes",
          "type": "string[]"
        }
      ],
      "name": "mint",
      "outputs": [],
      "stateMutability": "nonpayable",
      "type": "function"
    },
    {
      "inputs": [
        {
          "internalType": "address",
          "name": "_owner",
          "type": "address"
        }
      ],
      "name": "walletOfOwner",
      "outputs": [
        {
          "internalType": "uint256[]",
          "name": "",
          "type": "uint256[]"
        }
      ],
      "stateMutability": "view",
      "type": "function",
      "constant": true
    },
    {
      "inputs": [
        {
          "internalType": "uint256",
          "name": "tokenId",
          "type": "uint256"
        }
      ],
      "name": "tokenURI",
      "outputs": [
        {
          "internalType": "string",
          "name": "",
          "type": "string"
        }
      ],
      "stateMutability": "view",
      "type": "function",
      "constant": true
    },
    {
      "inputs": [
        {
          "internalType": "string",
          "name": "_newBaseURI",
          "type": "string"
        }
      ],
      "name": "setBaseURI",
      "outputs": [],
      "stateMutability": "nonpayable",
      "type": "function"
    }
  ],
  "bytecode": "0x60806040523480156200001157600080fd5b5060405162003cb038038062003cb08339818101604052810190620000379190620002d3565b8181816000908051906020019062000051929190620001b1565b5080600190805190602001906200006a929190620001b1565b5050506200008d62000081620000e360201b60201c565b620000eb60201b60201c565b6040518060400160405280601581526020017f68747470733a2f2f697066732e696f2f697066732f0000000000000000000000815250600b9080519060200190620000da929190620001b1565b50505062000477565b600033905090565b6000600a60009054906101000a900473ffffffffffffffffffffffffffffffffffffffff16905081600a60006101000a81548173ffffffffffffffffffffffffffffffffffffffff021916908373ffffffffffffffffffffffffffffffffffffffff1602179055508173ffffffffffffffffffffffffffffffffffffffff168173ffffffffffffffffffffffffffffffffffffffff167f8be0079c531659141344cd1fd0a4f28419497f9722a3daafe3b4186f6b6457e060405160405180910390a35050565b828054620001bf90620003e3565b90600052602060002090601f016020900481019282620001e357600085556200022f565b82601f10620001fe57805160ff19168380011785556200022f565b828001600101855582156200022f579182015b828111156200022e57825182559160200191906001019062000211565b5b5090506200023e919062000242565b5090565b5b808211156200025d57600081600090555060010162000243565b5090565b60006200027862000272846200037a565b62000346565b9050828152602081018484840111156200029157600080fd5b6200029e848285620003ad565b509392505050565b600082601f830112620002b857600080fd5b8151620002ca84826020860162000261565b91505092915050565b60008060408385031215620002e757600080fd5b600083015167ffffffffffffffff8111156200030257600080fd5b6200031085828601620002a6565b925050602083015167ffffffffffffffff8111156200032e57600080fd5b6200033c85828601620002a6565b9150509250929050565b6000604051905081810181811067ffffffffffffffff8211171562000370576200036f62000448565b5b8060405250919050565b600067ffffffffffffffff82111562000398576200039762000448565b5b601f19601f8301169050602081019050919050565b60005b83811015620003cd578082015181840152602081019050620003b0565b83811115620003dd576000848401525b50505050565b60006002820490506001821680620003fc57607f821691505b6020821081141562000413576200041262000419565b5b50919050565b7f4e487b7100000000000000000000000000000000000000000000000000000000600052602260045260246000fd5b7f4e487b7100000000000000000000000000000000000000000000000000000000600052604160045260246000fd5b61382980620004876000396000f3fe608060405234801561001057600080fd5b506004361061014d5760003560e01c80636352211e116100c3578063a22cb4651161007c578063a22cb465146103b2578063b88d4fde146103ce578063c87b56dd146103ea578063d90794cf1461041a578063e985e9c514610436578063f2fde38b146104665761014d565b80636352211e146102ee5780636c0360eb1461031e57806370a082311461033c578063715018a61461036c5780638da5cb5b1461037657806395d89b41146103945761014d565b806323b872dd1161011557806323b872dd1461020a5780632f745c591461022657806342842e0e14610256578063438b6300146102725780634f6ccce7146102a257806355f804b3146102d25761014d565b806301ffc9a71461015257806306fdde0314610182578063081812fc146101a0578063095ea7b3146101d057806318160ddd146101ec575b600080fd5b61016c60048036038101906101679190612787565b610482565b6040516101799190613158565b60405180910390f35b61018a6104fc565b6040516101979190613173565b60405180910390f35b6101ba60048036038101906101b5919061281a565b61058e565b6040516101c791906130cf565b60405180910390f35b6101ea60048036038101906101e5919061274b565b610613565b005b6101f461072b565b60405161020191906133d5565b60405180910390f35b610224600480360381019061021f91906125f1565b610738565b005b610240600480360381019061023b919061274b565b610798565b60405161024d91906133d5565b60405180910390f35b610270600480360381019061026b91906125f1565b61083d565b005b61028c6004803603810190610287919061258c565b61085d565b6040516102999190613136565b60405180910390f35b6102bc60048036038101906102b7919061281a565b610957565b6040516102c991906133d5565b60405180910390f35b6102ec60048036038101906102e791906127d9565b6109ee565b005b6103086004803603810190610303919061281a565b610a84565b60405161031591906130cf565b60405180910390f35b610326610b36565b6040516103339190613173565b60405180910390f35b6103566004803603810190610351919061258c565b610bc4565b60405161036391906133d5565b60405180910390f35b610374610c7c565b005b61037e610d04565b60405161038b91906130cf565b60405180910390f35b61039c610d2e565b6040516103a99190613173565b60405180910390f35b6103cc60048036038101906103c7919061270f565b610dc0565b005b6103e860048036038101906103e39190612640565b610f41565b005b61040460048036038101906103ff919061281a565b610fa3565b6040516104119190613173565b60405180910390f35b610434600480360381019061042f91906126bb565b61107f565b005b610450600480360381019061044b91906125b5565b6111b4565b60405161045d9190613158565b60405180910390f35b610480600480360381019061047b919061258c565b611248565b005b60007f780e9d63000000000000000000000000000000000000000000000000000000007bffffffffffffffffffffffffffffffffffffffffffffffffffffffff1916827bffffffffffffffffffffffffffffffffffffffffffffffffffffffff191614806104f557506104f482611340565b5b9050919050565b60606000805461050b9061367e565b80601f01602080910402602001604051908101604052809291908181526020018280546105379061367e565b80156105845780601f1061055957610100808354040283529160200191610584565b820191906000526020600020905b81548152906001019060200180831161056757829003601f168201915b5050505050905090565b600061059982611422565b6105d8576040517f08c379a00000000000000000000000000000000000000000000000000000000081526004016105cf906132f5565b60405180910390fd5b6004600083815260200190815260200160002060009054906101000a900473ffffffffffffffffffffffffffffffffffffffff169050919050565b600061061e82610a84565b90508073ffffffffffffffffffffffffffffffffffffffff168373ffffffffffffffffffffffffffffffffffffffff16141561068f576040517f08c379a000000000000000000000000000000000000000000000000000000000815260040161068690613375565b60405180910390fd5b8073ffffffffffffffffffffffffffffffffffffffff166106ae61148e565b73ffffffffffffffffffffffffffffffffffffffff1614806106dd57506106dc816106d761148e565b6111b4565b5b61071c576040517f08c379a000000000000000000000000000000000000000000000000000000000815260040161071390613275565b60405180910390fd5b6107268383611496565b505050565b6000600880549050905090565b61074961074361148e565b8261154f565b610788576040517f08c379a000000000000000000000000000000000000000000000000000000000815260040161077f90613395565b60405180910390fd5b61079383838361162d565b505050565b60006107a383610bc4565b82106107e4576040517f08c379a00000000000000000000000000000000000000000000000000000000081526004016107db90613195565b60405180910390fd5b600660008473ffffffffffffffffffffffffffffffffffffffff1673ffffffffffffffffffffffffffffffffffffffff168152602001908152602001600020600083815260200190815260200160002054905092915050565b61085883838360405180602001604052806000815250610f41565b505050565b6060600061086a83610bc4565b905060008167ffffffffffffffff8111156108ae577f4e487b7100000000000000000000000000000000000000000000000000000000600052604160045260246000fd5b6040519080825280602002602001820160405280156108dc5781602001602082028036833780820191505090505b50905060005b8281101561094c576108f48582610798565b82828151811061092d577f4e487b7100000000000000000000000000000000000000000000000000000000600052603260045260246000fd5b6020026020010181815250508080610944906136b0565b9150506108e2565b508092505050919050565b600061096161072b565b82106109a2576040517f08c379a0000000000000000000000000000000000000000000000000000000008152600401610999906133b5565b60405180910390fd5b600882815481106109dc577f4e487b7100000000000000000000000000000000000000000000000000000000600052603260045260246000fd5b90600052602060002001549050919050565b6109f661148e565b73ffffffffffffffffffffffffffffffffffffffff16610a14610d04565b73ffffffffffffffffffffffffffffffffffffffff1614610a6a576040517f08c379a0000000000000000000000000000000000000000000000000000000008152600401610a6190613315565b60405180910390fd5b80600b9080519060200190610a80929190612329565b5050565b6000806002600084815260200190815260200160002060009054906101000a900473ffffffffffffffffffffffffffffffffffffffff169050600073ffffffffffffffffffffffffffffffffffffffff168173ffffffffffffffffffffffffffffffffffffffff161415610b2d576040517f08c379a0000000000000000000000000000000000000000000000000000000008152600401610b24906132b5565b60405180910390fd5b80915050919050565b600b8054610b439061367e565b80601f0160208091040260200160405190810160405280929190818152602001828054610b6f9061367e565b8015610bbc5780601f10610b9157610100808354040283529160200191610bbc565b820191906000526020600020905b815481529060010190602001808311610b9f57829003601f168201915b505050505081565b60008073ffffffffffffffffffffffffffffffffffffffff168273ffffffffffffffffffffffffffffffffffffffff161415610c35576040517f08c379a0000000000000000000000000000000000000000000000000000000008152600401610c2c90613295565b60405180910390fd5b600360008373ffffffffffffffffffffffffffffffffffffffff1673ffffffffffffffffffffffffffffffffffffffff168152602001908152602001600020549050919050565b610c8461148e565b73ffffffffffffffffffffffffffffffffffffffff16610ca2610d04565b73ffffffffffffffffffffffffffffffffffffffff1614610cf8576040517f08c379a0000000000000000000000000000000000000000000000000000000008152600401610cef90613315565b60405180910390fd5b610d026000611889565b565b6000600a60009054906101000a900473ffffffffffffffffffffffffffffffffffffffff16905090565b606060018054610d3d9061367e565b80601f0160208091040260200160405190810160405280929190818152602001828054610d699061367e565b8015610db65780601f10610d8b57610100808354040283529160200191610db6565b820191906000526020600020905b815481529060010190602001808311610d9957829003601f168201915b5050505050905090565b610dc861148e565b73ffffffffffffffffffffffffffffffffffffffff168273ffffffffffffffffffffffffffffffffffffffff161415610e36576040517f08c379a0000000000000000000000000000000000000000000000000000000008152600401610e2d90613235565b60405180910390fd5b8060056000610e4361148e565b73ffffffffffffffffffffffffffffffffffffffff1673ffffffffffffffffffffffffffffffffffffffff16815260200190815260200160002060008473ffffffffffffffffffffffffffffffffffffffff1673ffffffffffffffffffffffffffffffffffffffff16815260200190815260200160002060006101000a81548160ff0219169083151502179055508173ffffffffffffffffffffffffffffffffffffffff16610ef061148e565b73ffffffffffffffffffffffffffffffffffffffff167f17307eab39ab6107e8899845ad3d59bd9653f200f220920489ca2b5937696c3183604051610f359190613158565b60405180910390a35050565b610f52610f4c61148e565b8361154f565b610f91576040517f08c379a0000000000000000000000000000000000000000000000000000000008152600401610f8890613395565b60405180910390fd5b610f9d8484848461194f565b50505050565b6060610fae82611422565b610fed576040517f08c379a0000000000000000000000000000000000000000000000000000000008152600401610fe490613355565b60405180910390fd5b6000610ff76119ab565b90506000815111801561102957506000600c600085815260200190815260200160002080546110259061367e565b9050115b6110425760405180602001604052806000815250611077565b80600c60008581526020019081526020016000206040516020016110679291906130ab565b6040516020818303038152906040525b915050919050565b61108761148e565b73ffffffffffffffffffffffffffffffffffffffff166110a5610d04565b73ffffffffffffffffffffffffffffffffffffffff16146110fb576040517f08c379a00000000000000000000000000000000000000000000000000000000081526004016110f290613315565b60405180910390fd5b600061110561072b565b905060005b82518110156111ae57611128848284611123919061353e565b611a3d565b828181518110611161577f4e487b7100000000000000000000000000000000000000000000000000000000600052603260045260246000fd5b6020026020010151600c60008385611179919061353e565b8152602001908152602001600020908051906020019061119a929190612329565b5080806111a6906136b0565b91505061110a565b50505050565b6000600560008473ffffffffffffffffffffffffffffffffffffffff1673ffffffffffffffffffffffffffffffffffffffff16815260200190815260200160002060008373ffffffffffffffffffffffffffffffffffffffff1673ffffffffffffffffffffffffffffffffffffffff16815260200190815260200160002060009054906101000a900460ff16905092915050565b61125061148e565b73ffffffffffffffffffffffffffffffffffffffff1661126e610d04565b73ffffffffffffffffffffffffffffffffffffffff16146112c4576040517f08c379a00000000000000000000000000000000000000000000000000000000081526004016112bb90613315565b60405180910390fd5b600073ffffffffffffffffffffffffffffffffffffffff168173ffffffffffffffffffffffffffffffffffffffff161415611334576040517f08c379a000000000000000000000000000000000000000000000000000000000815260040161132b906131d5565b60405180910390fd5b61133d81611889565b50565b60007f80ac58cd000000000000000000000000000000000000000000000000000000007bffffffffffffffffffffffffffffffffffffffffffffffffffffffff1916827bffffffffffffffffffffffffffffffffffffffffffffffffffffffff1916148061140b57507f5b5e139f000000000000000000000000000000000000000000000000000000007bffffffffffffffffffffffffffffffffffffffffffffffffffffffff1916827bffffffffffffffffffffffffffffffffffffffffffffffffffffffff1916145b8061141b575061141a82611a5b565b5b9050919050565b60008073ffffffffffffffffffffffffffffffffffffffff166002600084815260200190815260200160002060009054906101000a900473ffffffffffffffffffffffffffffffffffffffff1673ffffffffffffffffffffffffffffffffffffffff1614159050919050565b600033905090565b816004600083815260200190815260200160002060006101000a81548173ffffffffffffffffffffffffffffffffffffffff021916908373ffffffffffffffffffffffffffffffffffffffff160217905550808273ffffffffffffffffffffffffffffffffffffffff1661150983610a84565b73ffffffffffffffffffffffffffffffffffffffff167f8c5be1e5ebec7d5bd14f71427d1e84f3dd0314c0f7b2291e5b200ac8c7c3b92560405160405180910390a45050565b600061155a82611422565b611599576040517f08c379a000000000000000000000000000000000000000000000000000000000815260040161159090613255565b60405180910390fd5b60006115a483610a84565b90508073ffffffffffffffffffffffffffffffffffffffff168473ffffffffffffffffffffffffffffffffffffffff16148061161357508373ffffffffffffffffffffffffffffffffffffffff166115fb8461058e565b73ffffffffffffffffffffffffffffffffffffffff16145b80611624575061162381856111b4565b5b91505092915050565b8273ffffffffffffffffffffffffffffffffffffffff1661164d82610a84565b73ffffffffffffffffffffffffffffffffffffffff16146116a3576040517f08c379a000000000000000000000000000000000000000000000000000000000815260040161169a90613335565b60405180910390fd5b600073ffffffffffffffffffffffffffffffffffffffff168273ffffffffffffffffffffffffffffffffffffffff161415611713576040517f08c379a000000000000000000000000000000000000000000000000000000000815260040161170a90613215565b60405180910390fd5b61171e838383611ac5565b611729600082611496565b6001600360008573ffffffffffffffffffffffffffffffffffffffff1673ffffffffffffffffffffffffffffffffffffffff16815260200190815260200160002060008282546117799190613594565b925050819055506001600360008473ffffffffffffffffffffffffffffffffffffffff1673ffffffffffffffffffffffffffffffffffffffff16815260200190815260200160002060008282546117d0919061353e565b92505081905550816002600083815260200190815260200160002060006101000a81548173ffffffffffffffffffffffffffffffffffffffff021916908373ffffffffffffffffffffffffffffffffffffffff160217905550808273ffffffffffffffffffffffffffffffffffffffff168473ffffffffffffffffffffffffffffffffffffffff167fddf252ad1be2c89b69c2b068fc378daa952ba7f163c4a11628f55a4df523b3ef60405160405180910390a4505050565b6000600a60009054906101000a900473ffffffffffffffffffffffffffffffffffffffff16905081600a60006101000a81548173ffffffffffffffffffffffffffffffffffffffff021916908373ffffffffffffffffffffffffffffffffffffffff1602179055508173ffffffffffffffffffffffffffffffffffffffff168173ffffffffffffffffffffffffffffffffffffffff167f8be0079c531659141344cd1fd0a4f28419497f9722a3daafe3b4186f6b6457e060405160405180910390a35050565b61195a84848461162d565b61196684848484611bd9565b6119a5576040517f08c379a000000000000000000000000000000000000000000000000000000000815260040161199c906131b5565b60405180910390fd5b50505050565b6060600b80546119ba9061367e565b80601f01602080910402602001604051908101604052809291908181526020018280546119e69061367e565b8015611a335780601f10611a0857610100808354040283529160200191611a33565b820191906000526020600020905b815481529060010190602001808311611a1657829003601f168201915b5050505050905090565b611a57828260405180602001604052806000815250611d70565b5050565b60007f01ffc9a7000000000000000000000000000000000000000000000000000000007bffffffffffffffffffffffffffffffffffffffffffffffffffffffff1916827bffffffffffffffffffffffffffffffffffffffffffffffffffffffff1916149050919050565b611ad0838383611dcb565b600073ffffffffffffffffffffffffffffffffffffffff168373ffffffffffffffffffffffffffffffffffffffff161415611b1357611b0e81611dd0565b611b52565b8173ffffffffffffffffffffffffffffffffffffffff168373ffffffffffffffffffffffffffffffffffffffff1614611b5157611b508382611e19565b5b5b600073ffffffffffffffffffffffffffffffffffffffff168273ffffffffffffffffffffffffffffffffffffffff161415611b9557611b9081611f86565b611bd4565b8273ffffffffffffffffffffffffffffffffffffffff168273ffffffffffffffffffffffffffffffffffffffff1614611bd357611bd282826120c9565b5b5b505050565b6000611bfa8473ffffffffffffffffffffffffffffffffffffffff16612148565b15611d63578373ffffffffffffffffffffffffffffffffffffffff1663150b7a02611c2361148e565b8786866040518563ffffffff1660e01b8152600401611c4594939291906130ea565b602060405180830381600087803b158015611c5f57600080fd5b505af1925050508015611c9057506040513d601f19601f82011682018060405250810190611c8d91906127b0565b60015b611d13573d8060008114611cc0576040519150601f19603f3d011682016040523d82523d6000602084013e611cc5565b606091505b50600081511415611d0b576040517f08c379a0000000000000000000000000000000000000000000000000000000008152600401611d02906131b5565b60405180910390fd5b805181602001fd5b63150b7a0260e01b7bffffffffffffffffffffffffffffffffffffffffffffffffffffffff1916817bffffffffffffffffffffffffffffffffffffffffffffffffffffffff191614915050611d68565b600190505b949350505050565b611d7a838361215b565b611d876000848484611bd9565b611dc6576040517f08c379a0000000000000000000000000000000000000000000000000000000008152600401611dbd906131b5565b60405180910390fd5b505050565b505050565b6008805490506009600083815260200190815260200160002081905550600881908060018154018082558091505060019003906000526020600020016000909190919091505550565b60006001611e2684610bc4565b611e309190613594565b9050600060076000848152602001908152602001600020549050818114611f15576000600660008673ffffffffffffffffffffffffffffffffffffffff1673ffffffffffffffffffffffffffffffffffffffff168152602001908152602001600020600084815260200190815260200160002054905080600660008773ffffffffffffffffffffffffffffffffffffffff1673ffffffffffffffffffffffffffffffffffffffff168152602001908152602001600020600084815260200190815260200160002081905550816007600083815260200190815260200160002081905550505b6007600084815260200190815260200160002060009055600660008573ffffffffffffffffffffffffffffffffffffffff1673ffffffffffffffffffffffffffffffffffffffff16815260200190815260200160002060008381526020019081526020016000206000905550505050565b60006001600880549050611f9a9190613594565b9050600060096000848152602001908152602001600020549050600060088381548110611ff0577f4e487b7100000000000000000000000000000000000000000000000000000000600052603260045260246000fd5b906000526020600020015490508060088381548110612038577f4e487b7100000000000000000000000000000000000000000000000000000000600052603260045260246000fd5b9060005260206000200181905550816009600083815260200190815260200160002081905550600960008581526020019081526020016000206000905560088054806120ad577f4e487b7100000000000000000000000000000000000000000000000000000000600052603160045260246000fd5b6001900381819060005260206000200160009055905550505050565b60006120d483610bc4565b905081600660008573ffffffffffffffffffffffffffffffffffffffff1673ffffffffffffffffffffffffffffffffffffffff168152602001908152602001600020600083815260200190815260200160002081905550806007600084815260200190815260200160002081905550505050565b600080823b905060008111915050919050565b600073ffffffffffffffffffffffffffffffffffffffff168273ffffffffffffffffffffffffffffffffffffffff1614156121cb576040517f08c379a00000000000000000000000000000000000000000000000000000000081526004016121c2906132d5565b60405180910390fd5b6121d481611422565b15612214576040517f08c379a000000000000000000000000000000000000000000000000000000000815260040161220b906131f5565b60405180910390fd5b61222060008383611ac5565b6001600360008473ffffffffffffffffffffffffffffffffffffffff1673ffffffffffffffffffffffffffffffffffffffff1681526020019081526020016000206000828254612270919061353e565b92505081905550816002600083815260200190815260200160002060006101000a81548173ffffffffffffffffffffffffffffffffffffffff021916908373ffffffffffffffffffffffffffffffffffffffff160217905550808273ffffffffffffffffffffffffffffffffffffffff16600073ffffffffffffffffffffffffffffffffffffffff167fddf252ad1be2c89b69c2b068fc378daa952ba7f163c4a11628f55a4df523b3ef60405160405180910390a45050565b8280546123359061367e565b90600052602060002090601f016020900481019282612357576000855561239e565b82601f1061237057805160ff191683800117855561239e565b8280016001018555821561239e579182015b8281111561239d578251825591602001919060010190612382565b5b5090506123ab91906123af565b5090565b5b808211156123c85760008160009055506001016123b0565b5090565b60006123df6123da84613421565b6133f0565b9050808382526020820190508260005b8581101561241f5781358501612405888261254d565b8452602084019350602083019250506001810190506123ef565b5050509392505050565b600061243c6124378461344d565b6133f0565b90508281526020810184848401111561245457600080fd5b61245f84828561363c565b509392505050565b600061247a6124758461347d565b6133f0565b90508281526020810184848401111561249257600080fd5b61249d84828561363c565b509392505050565b6000813590506124b481613797565b92915050565b600082601f8301126124cb57600080fd5b81356124db8482602086016123cc565b91505092915050565b6000813590506124f3816137ae565b92915050565b600081359050612508816137c5565b92915050565b60008151905061251d816137c5565b92915050565b600082601f83011261253457600080fd5b8135612544848260208601612429565b91505092915050565b600082601f83011261255e57600080fd5b813561256e848260208601612467565b91505092915050565b600081359050612586816137dc565b92915050565b60006020828403121561259e57600080fd5b60006125ac848285016124a5565b91505092915050565b600080604083850312156125c857600080fd5b60006125d6858286016124a5565b92505060206125e7858286016124a5565b9150509250929050565b60008060006060848603121561260657600080fd5b6000612614868287016124a5565b9350506020612625868287016124a5565b925050604061263686828701612577565b9150509250925092565b6000806000806080858703121561265657600080fd5b6000612664878288016124a5565b9450506020612675878288016124a5565b935050604061268687828801612577565b925050606085013567ffffffffffffffff8111156126a357600080fd5b6126af87828801612523565b91505092959194509250565b600080604083850312156126ce57600080fd5b60006126dc858286016124a5565b925050602083013567ffffffffffffffff8111156126f957600080fd5b612705858286016124ba565b9150509250929050565b6000806040838503121561272257600080fd5b6000612730858286016124a5565b9250506020612741858286016124e4565b9150509250929050565b6000806040838503121561275e57600080fd5b600061276c858286016124a5565b925050602061277d85828601612577565b9150509250929050565b60006020828403121561279957600080fd5b60006127a7848285016124f9565b91505092915050565b6000602082840312156127c257600080fd5b60006127d08482850161250e565b91505092915050565b6000602082840312156127eb57600080fd5b600082013567ffffffffffffffff81111561280557600080fd5b6128118482850161254d565b91505092915050565b60006020828403121561282c57600080fd5b600061283a84828501612577565b91505092915050565b600061284f838361308d565b60208301905092915050565b612864816135c8565b82525050565b6000612875826134d2565b61287f8185613500565b935061288a836134ad565b8060005b838110156128bb5781516128a28882612843565b97506128ad836134f3565b92505060018101905061288e565b5085935050505092915050565b6128d1816135da565b82525050565b60006128e2826134dd565b6128ec8185613511565b93506128fc81856020860161364b565b61290581613786565b840191505092915050565b600061291b826134e8565b6129258185613522565b935061293581856020860161364b565b61293e81613786565b840191505092915050565b6000612954826134e8565b61295e8185613533565b935061296e81856020860161364b565b80840191505092915050565b600081546129878161367e565b6129918186613533565b945060018216600081146129ac57600181146129bd576129f0565b60ff198316865281860193506129f0565b6129c6856134bd565b60005b838110156129e8578154818901526001820191506020810190506129c9565b838801955050505b50505092915050565b6000612a06602b83613522565b91507f455243373231456e756d657261626c653a206f776e657220696e646578206f7560008301527f74206f6620626f756e64730000000000000000000000000000000000000000006020830152604082019050919050565b6000612a6c603283613522565b91507f4552433732313a207472616e7366657220746f206e6f6e20455243373231526560008301527f63656976657220696d706c656d656e74657200000000000000000000000000006020830152604082019050919050565b6000612ad2602683613522565b91507f4f776e61626c653a206e6577206f776e657220697320746865207a65726f206160008301527f64647265737300000000000000000000000000000000000000000000000000006020830152604082019050919050565b6000612b38601c83613522565b91507f4552433732313a20746f6b656e20616c7265616479206d696e746564000000006000830152602082019050919050565b6000612b78602483613522565b91507f4552433732313a207472616e7366657220746f20746865207a65726f2061646460008301527f72657373000000000000000000000000000000000000000000000000000000006020830152604082019050919050565b6000612bde601983613522565b91507f4552433732313a20617070726f766520746f2063616c6c6572000000000000006000830152602082019050919050565b6000612c1e602c83613522565b91507f4552433732313a206f70657261746f7220717565727920666f72206e6f6e657860008301527f697374656e7420746f6b656e00000000000000000000000000000000000000006020830152604082019050919050565b6000612c84603883613522565b91507f4552433732313a20617070726f76652063616c6c6572206973206e6f74206f7760008301527f6e6572206e6f7220617070726f76656420666f7220616c6c00000000000000006020830152604082019050919050565b6000612cea602a83613522565b91507f4552433732313a2062616c616e636520717565727920666f7220746865207a6560008301527f726f2061646472657373000000000000000000000000000000000000000000006020830152604082019050919050565b6000612d50602983613522565b91507f4552433732313a206f776e657220717565727920666f72206e6f6e657869737460008301527f656e7420746f6b656e00000000000000000000000000000000000000000000006020830152604082019050919050565b6000612db6602083613522565b91507f4552433732313a206d696e7420746f20746865207a65726f20616464726573736000830152602082019050919050565b6000612df6602c83613522565b91507f4552433732313a20617070726f76656420717565727920666f72206e6f6e657860008301527f697374656e7420746f6b656e00000000000000000000000000000000000000006020830152604082019050919050565b6000612e5c602083613522565b91507f4f776e61626c653a2063616c6c6572206973206e6f7420746865206f776e65726000830152602082019050919050565b6000612e9c602983613522565b91507f4552433732313a207472616e73666572206f6620746f6b656e2074686174206960008301527f73206e6f74206f776e00000000000000000000000000000000000000000000006020830152604082019050919050565b6000612f02602f83613522565b91507f4552433732314d657461646174613a2055524920717565727920666f72206e6f60008301527f6e6578697374656e7420746f6b656e00000000000000000000000000000000006020830152604082019050919050565b6000612f68602183613522565b91507f4552433732313a20617070726f76616c20746f2063757272656e74206f776e6560008301527f72000000000000000000000000000000000000000000000000000000000000006020830152604082019050919050565b6000612fce603183613522565b91507f4552433732313a207472616e736665722063616c6c6572206973206e6f74206f60008301527f776e6572206e6f7220617070726f7665640000000000000000000000000000006020830152604082019050919050565b6000613034602c83613522565b91507f455243373231456e756d657261626c653a20676c6f62616c20696e646578206f60008301527f7574206f6620626f756e647300000000000000000000000000000000000000006020830152604082019050919050565b61309681613632565b82525050565b6130a581613632565b82525050565b60006130b78285612949565b91506130c3828461297a565b91508190509392505050565b60006020820190506130e4600083018461285b565b92915050565b60006080820190506130ff600083018761285b565b61310c602083018661285b565b613119604083018561309c565b818103606083015261312b81846128d7565b905095945050505050565b60006020820190508181036000830152613150818461286a565b905092915050565b600060208201905061316d60008301846128c8565b92915050565b6000602082019050818103600083015261318d8184612910565b905092915050565b600060208201905081810360008301526131ae816129f9565b9050919050565b600060208201905081810360008301526131ce81612a5f565b9050919050565b600060208201905081810360008301526131ee81612ac5565b9050919050565b6000602082019050818103600083015261320e81612b2b565b9050919050565b6000602082019050818103600083015261322e81612b6b565b9050919050565b6000602082019050818103600083015261324e81612bd1565b9050919050565b6000602082019050818103600083015261326e81612c11565b9050919050565b6000602082019050818103600083015261328e81612c77565b9050919050565b600060208201905081810360008301526132ae81612cdd565b9050919050565b600060208201905081810360008301526132ce81612d43565b9050919050565b600060208201905081810360008301526132ee81612da9565b9050919050565b6000602082019050818103600083015261330e81612de9565b9050919050565b6000602082019050818103600083015261332e81612e4f565b9050919050565b6000602082019050818103600083015261334e81612e8f565b9050919050565b6000602082019050818103600083015261336e81612ef5565b9050919050565b6000602082019050818103600083015261338e81612f5b565b9050919050565b600060208201905081810360008301526133ae81612fc1565b9050919050565b600060208201905081810360008301526133ce81613027565b9050919050565b60006020820190506133ea600083018461309c565b92915050565b6000604051905081810181811067ffffffffffffffff8211171561341757613416613757565b5b8060405250919050565b600067ffffffffffffffff82111561343c5761343b613757565b5b602082029050602081019050919050565b600067ffffffffffffffff82111561346857613467613757565b5b601f19601f8301169050602081019050919050565b600067ffffffffffffffff82111561349857613497613757565b5b601f19601f8301169050602081019050919050565b6000819050602082019050919050565b60008190508160005260206000209050919050565b600081519050919050565b600081519050919050565b600081519050919050565b6000602082019050919050565b600082825260208201905092915050565b600082825260208201905092915050565b600082825260208201905092915050565b600081905092915050565b600061354982613632565b915061355483613632565b9250827fffffffffffffffffffffffffffffffffffffffffffffffffffffffffffffffff03821115613589576135886136f9565b5b828201905092915050565b600061359f82613632565b91506135aa83613632565b9250828210156135bd576135bc6136f9565b5b828203905092915050565b60006135d382613612565b9050919050565b60008115159050919050565b60007fffffffff0000000000000000000000000000000000000000000000000000000082169050919050565b600073ffffffffffffffffffffffffffffffffffffffff82169050919050565b6000819050919050565b82818337600083830152505050565b60005b8381101561366957808201518184015260208101905061364e565b83811115613678576000848401525b50505050565b6000600282049050600182168061369657607f821691505b602082108114156136aa576136a9613728565b5b50919050565b60006136bb82613632565b91507fffffffffffffffffffffffffffffffffffffffffffffffffffffffffffffffff8214156136ee576136ed6136f9565b5b600182019050919050565b7f4e487b7100000000000000000000000000000000000000000000000000000000600052601160045260246000fd5b7f4e487b7100000000000000000000000000000000000000000000000000000000600052602260045260246000fd5b7f4e487b7100000000000000000000000000000000000000000000000000000000600052604160045260246000fd5b6000601f19601f8301169050919050565b6137a0816135c8565b81146137ab57600080fd5b50565b6137b7816135da565b81146137c257600080fd5b50565b6137ce816135e6565b81146137d957600080fd5b50565b6137e581613632565b81146137f057600080fd5b5056fea2646970667358221220ee01f886471aeabf66a35f7725c48b233946c47b3db2e8578baa7da813ad671864736f6c63430008000033",
  "immutableReferences": {},
  "source": "// SPDX-License-Identifier: MIT\npragma solidity 0.8.0;\n\nimport \"@openzeppelin/contracts/token/ERC721/extensions/ERC721Enumerable.sol\";\nimport \"@openzeppelin/contracts/access/Ownable.sol\";\n\ncontract NftEjm is ERC721Enumerable, Ownable {\n    string public baseURI;\n    mapping(uint256 => string) private _hashIPFS;\n\n    constructor(string memory _name, string memory _symbol)\n        ERC721(_name, _symbol)\n    {\n        baseURI = \"https://ipfs.io/ipfs/\";\n    }\n\n    function mint(address _to, string[] memory _hashes) public onlyOwner {\n        uint256 supply = totalSupply();\n\n        for (uint256 i = 0; i < _hashes.length; i++) {\n            _safeMint(_to, supply + i);\n            _hashIPFS[supply + i] = _hashes[i];\n        }\n    }\n\n    function walletOfOwner(address _owner)\n        public\n        view\n        returns (uint256[] memory)\n    {\n        uint256 ownerTokenCount = balanceOf(_owner);\n        uint256[] memory tokenIds = new uint256[](ownerTokenCount);\n        for (uint256 i; i < ownerTokenCount; i++) {\n            tokenIds[i] = tokenOfOwnerByIndex(_owner, i);\n        }\n        return tokenIds;\n    }\n\n    function tokenURI(uint256 tokenId)\n        public\n        view\n        virtual\n        override\n        returns (string memory)\n    {\n        require(\n            _exists(tokenId),\n            \"ERC721Metadata: URI query for nonexistent token\"\n        );\n\n        string memory currentBaseURI = _baseURI();\n        return\n            (bytes(currentBaseURI).length > 0 &&\n                bytes(_hashIPFS[tokenId]).length > 0)\n                ? string(abi.encodePacked(currentBaseURI, _hashIPFS[tokenId]))\n                : \"\";\n    }\n\n    function _baseURI() internal view virtual override returns (string memory) {\n        return baseURI;\n    }\n\n    function setBaseURI(string memory _newBaseURI) public onlyOwner {\n        baseURI = _newBaseURI;\n    }\n}\n",
  "sourcePath": "/Users/alberto/Desktop/NFT_OPENSEA/contracts/Nfts.sol",
  "compiler": {
    "name": "solc",
    "version": "0.8.0+commit.c7dfd78e.Emscripten.clang"
  },
  "schemaVersion": "3.4.1",
  "updatedAt": "2021-09-14T17:03:24.791Z",
  "networkType": "ethereum",
  "devdoc": {
    "kind": "dev",
    "methods": {
      "approve(address,uint256)": {
        "details": "See {IERC721-approve}."
      },
      "balanceOf(address)": {
        "details": "See {IERC721-balanceOf}."
      },
      "getApproved(uint256)": {
        "details": "See {IERC721-getApproved}."
      },
      "isApprovedForAll(address,address)": {
        "details": "See {IERC721-isApprovedForAll}."
      },
      "name()": {
        "details": "See {IERC721Metadata-name}."
      },
      "owner()": {
        "details": "Returns the address of the current owner."
      },
      "ownerOf(uint256)": {
        "details": "See {IERC721-ownerOf}."
      },
      "renounceOwnership()": {
        "details": "Leaves the contract without owner. It will not be possible to call `onlyOwner` functions anymore. Can only be called by the current owner. NOTE: Renouncing ownership will leave the contract without an owner, thereby removing any functionality that is only available to the owner."
      },
      "safeTransferFrom(address,address,uint256)": {
        "details": "See {IERC721-safeTransferFrom}."
      },
      "safeTransferFrom(address,address,uint256,bytes)": {
        "details": "See {IERC721-safeTransferFrom}."
      },
      "setApprovalForAll(address,bool)": {
        "details": "See {IERC721-setApprovalForAll}."
      },
      "supportsInterface(bytes4)": {
        "details": "See {IERC165-supportsInterface}."
      },
      "symbol()": {
        "details": "See {IERC721Metadata-symbol}."
      },
      "tokenByIndex(uint256)": {
        "details": "See {IERC721Enumerable-tokenByIndex}."
      },
      "tokenOfOwnerByIndex(address,uint256)": {
        "details": "See {IERC721Enumerable-tokenOfOwnerByIndex}."
      },
      "tokenURI(uint256)": {
        "details": "See {IERC721Metadata-tokenURI}."
      },
      "totalSupply()": {
        "details": "See {IERC721Enumerable-totalSupply}."
      },
      "transferFrom(address,address,uint256)": {
        "details": "See {IERC721-transferFrom}."
      },
      "transferOwnership(address)": {
        "details": "Transfers ownership of the contract to a new account (`newOwner`). Can only be called by the current owner."
      }
    },
    "version": 1
  },
  "userdoc": {
    "kind": "user",
    "methods": {},
    "version": 1
  }
}